:1000000052C0000077C0000075C0000073C000003F
:1000100071C000006FC000006DC000006BC0000028
:1000200069C0000067C0000065C0000063C0000038
:1000300061C00000CBC400005DC000005BC00000D8
:100040000C944A0857C000000C94500A0C94820A81
:1000500051C000004FC000004DC000004BC0000068
:1000600049C0000047C00000010204081020408081
:1000700001020408102001020408102004040404F2
:100080000404040402020202020203030303030342
:1000900000000000250028002B00000000002400C4
:1000A00027002A00A70A11241FBECFEFD8E0DEBF29
:1000B000CDBF11E0A0E0B1E0E6E7FAE102C00590B3
:1000C0000D92A033B107D9F722E0A0E3B1E001C05F
:1000D0001D92AC32B207E1F710E0C3E5D0E004C0F6
:1000E0002197FE010E94200DC235D107C9F7D0D457
:1000F0000C94390D85CF08952F923F924F925F92C5
:100100006F927F928F929F92AF92BF92CF92DF9227
:10011000EF92FF920F931F93CF93DF93CDB7DEB78C
:100120002B013A01F02E9C2D2D883E88BF88688DCA
:10013000798D4A8D8111F2C0C22ED12C88E0C8166B
:10014000D10419F484E0C82ED12C0AE010E09923E0
:1001500051F000E110E0913031F008E010E0923011
:1001600011F002E010E0F11031C06115710529F0C5
:1001700050E089E491E00E94D40AC69CA001C79C8B
:10018000500DD69C500D1124B20189E491E00E94DB
:10019000D40A2114310409F4C1C04B2D50E0B1013F
:1001A00089E491E0DF91CF911F910F91FF90EF9043
:1001B000DF90CF90BF90AF909F908F907F906F9087
:1001C0005F904F903F902F900C94D40AB40189E433
:1001D00091E00E94100BE6E0EE1508F49FC0EE2DB2
:1001E000F0E0EB50FF4F0C94200D130126013A0173
:1001F000500165017801FC00B12C81E0681A71089A
:1002000008F48CC0F20141915191619171912F01DB
:10021000F1E0950189E491E0FF127DC00E94ED0CB0
:10022000ECCF0E94E80B6A94FFEF6F1609F476C0DA
:10023000F20161912F01F1E0A80189E491E0FF1240
:10024000F0CF0E94E20BEFCF0E94FD0B6A948FEF7C
:10025000681609F463C0F201619171912F01F1E018
:10026000A80189E491E0FF12EFCF0E94F80BEECFD6
:100270000E940D0C6A948FEF681609F44FC0F201CA
:1002800041915191619171912F01F1E0980189E4BF
:1002900091E0FF12EDCF0E94D60BECCF0E94B60B7F
:1002A0006A948FEF6816D1F1F20161912F01062E49
:1002B000000C770BF1E0A80189E491E0FF12EECF8A
:1002C0000E94B00BEDCF0E94B60B6A948FEF6816B8
:1002D00029F1F201619171912F01F1E0A80189E406
:1002E00091E0FF12F0CF0E94B00BEFCF0E94C60B3F
:1002F0006A948FEF681691F0F201419151916191EA
:1003000071912F01F1E0980189E491E0FF12EECFA5
:100310000E946B0BEDCF0E94EE0C6FCFDF91CF915F
:100320001F910F91FF90EF90DF90CF90BF90AF9013
:100330009F908F907F906F905F904F903F902F9005
:100340000895CF93DF93882341F0EB01815027D7A5
:1003500099838883DF91CF910895FB0111821082E8
:10036000F9CF0F931F938B019C0183E0369527955E
:10037000179507958A95D1F7005D1E4F462F477058
:1003800021E030E0F90102C0EE0FFF1F4A95E2F7CD
:10039000AF01F80120812423CB010196211102C075
:1003A00090E080E01F910F9108950F931F938B01B0
:1003B0009C0183E036952795179507958A95D1F787
:1003C000677081E090E001C0880F6A95EAF7F80154
:1003D000E05DFE4F2081452B31F4809582238083A0
:1003E0001F910F910895822BFACFCF92DF92EF9257
:1003F000FF92CF93DF936B017C0160E08EE0C81623
:10040000D104E104F10488F48EE08C0DE3D6E6011A
:100410002196AE01C701B601C8DFCE01DF91CF91B1
:10042000FF90EF90DF90CF9008958C2DEFCF882331
:1004300041F08150682F70E090E080E050E040E0B3
:10044000B4CF0895CF92DF92EF92FF926B017C01BF
:100450009F7720E030E040E859E5CAD387FF26C007
:1004600020E030E040E05FE3C701B601ACD587FD96
:100470000CC020E030E040E05FE3C701B60141D3AB
:10048000FF90EF90DF90CF9088C420E030E040E014
:100490005FEBC701B60197D518167CF420E030E079
:1004A000A901C701B60193D56B017C01C701B60153
:1004B000FF90EF90DF90CF90089520E030E040E093
:1004C0005FE3C701B6011CD3FF90EF90DF90CF90A0
:1004D0007CC38F929F92AF92CF92DF92EF92FF9266
:1004E0000F93CF93DF9300D000D000D0CDB7DEB70D
:1004F0006EE070E080E090E034DF90931102809332
:10050000100243E050E0BE016B5F7F4F1ADF6FE0E7
:1005100070E080E090E025DF90930902809308026C
:1005200043E050E0BE016D5F7F4F0BDF20910A0179
:10053000AD81BE8130E00E94260DF4D320910201EE
:1005400030910301409104015091050155D37ADFA8
:100550006B017C01F0D18111ABC0C701B601A8D1FC
:100560008111A6C020E030E040E853E4C701B601A5
:100570002ED46B017C0120E030E0A90139D387FF44
:100580009AC0C701B60190589FD361958091000130
:100590006823698320910B01AB81BC8130E00E940C
:1005A000260DC0D32091060130910701409108012A
:1005B0005091090121D346DF6B017C01BCD181112F
:1005C0007EC0C701B60174D1811179C020E030E04E
:1005D00040E853E4C701B601FAD36B017C0120E087
:1005E00030E0A90105D387FF6DC0C701B60190585F
:1005F0006BD3619580910101682B6A836091FC0146
:100600007091FD018091FE019091FF015DD3C62E96
:100610006091F4017091F5018091F6019091F701DC
:1006200053D3E62E6091F8017091F9018091FA019F
:100630009091FB0149D3062F6091F0017091F10177
:100640008091F2019091F3013FD3F62E6091EC017D
:100650007091ED018091EE019091EF0135D3862FDD
:100660001F921F921F921F921F921F92912C812CFA
:1006700092E0A92E2F2D42E050E0BE016F5F7F4F28
:100680003BDD0F900F900F900F900F900F902696DC
:100690000FB6F894DEBF0FBECDBFDF91CF910F91A3
:1006A000FF90EF90DF90CF90AF909F908F90089544
:1006B000C12CD12C7601C701B60106D367CFC12C5E
:1006C000D12C7601C701B601FFD294CFCF92DF9231
:1006D000EF92FF921F93CF93DF9384E090E0B1D02D
:1006E000C6EED1E01CA2C12CD12C7601C394CDA2C0
:1006F000DEA2EFA2F8A66EE070E080E090E075DE8A
:100700009BA78AA711E019A71C8ECD8EDE8EEF8ED7
:10071000F8A26FE070E080E090E067DE9BA38AA320
:1007200019A31882C982DA82EB82FC821E821F82A0
:100730001886198680E090E0A0E8BFE38A879B874F
:10074000AC87BD871E861F86188A198A1A8A1B8A5B
:100750001C8A1D8A1E8A1F8A188E198E80E0CBDCA7
:100760001D83DF91CF911F91FF90EF90DF90CF908D
:10077000089580910A0281111DC081E080930A02D0
:1007800080910B0290910C02A0910D02B0910E028B
:100790000197A105B10571F480910F02882351F0F2
:1007A0006EE070E080E090E0DCDD909311028093D9
:1007B00010023DDE8091020281111DC081E0809314
:1007C00002028091030290910402A0910502B0916F
:1007D00006020197A105B10571F4809107028823F3
:1007E00051F06FE070E080E090E0BBDD9093090293
:1007F000809308021CDE8091E601811103C081E034
:100800008093E601089560E070E080E89FE7089536
:1008100060E070E080E89FE7089560E070E080E8C5
:100820009FEF089560E070E080E89FEF089560E03A
:1008300070E080EC9FEF089560E070E080EC9FEF47
:100840000895F5DF60931E0270931F0280932002CB
:1008500090932102F1DF6093120270931302809350
:10086000140290931502CFDF60931A0270931B025B
:1008700080931C0290931D02CBDF6093160270934D
:1008800017028093180290931902C7DF6093220227
:10089000709323028093240290932502C3DF609318
:1008A00026027093270280932802909329020895CC
:1008B000CF92DF92EF92FF92CF936B017C01AC015C
:1008C0009B0160911A0270911B0280911C02909111
:1008D0001D028ED1C1E0882369F0A70196016091C5
:1008E000220270912302809124029091250280D1EE
:1008F0008111C0E08C2FCF91FF90EF90DF90CF90CF
:1009000008950F931F938B019C01002711272078D6
:100910003F770115110520483F4749F4AB01BC0161
:100920006F77772781E0452B462B472B09F480E032
:100930001F910F910895E5CF089526E030E040E83B
:1009400055E260E070E090E080E000C010923C0171
:1009500010923B0189309105E8F48E549B4FFC01C5
:100960000C94200DBB04C404CB04CE04D104D404E5
:10097000D704DA04E00481E090E090933C01809396
:100980003B0189E491E02CC582E090E090933C012A
:1009900080933B01089584E090E0F8CF88E090E0F8
:1009A000F5CF80E190E0F2CF80E290E0EFCF80E4FD
:1009B00090E0ECCF80E890E090933C0180933B0185
:1009C00080913B0190913C019160E0CF1F920F928A
:1009D0000FB60F9211242F933F934F935F936F9312
:1009E0007F938F939F93AF93BF93EF93FF938BEC82
:1009F00093EF909385008093840032D0FF91EF9124
:100A0000BF91AF919F918F917F916F915F914F9126
:100A10003F912F910F900FBE0F901F9018958BEC68
:100A200093EF9093850080938400AFE6B0E08C91C3
:100A30008E7F8C93E0E8F0E080818C7F8083E1E81A
:100A4000F0E08081877E80838081856080838081E3
:100A50008D7F80838C9181608C93089581E00895CF
:100A600080913D0191E0980F90933D01882349F0DA
:100A700021E030E030933F0120933E0180933D011F
:100A80000895789426DDF89480913D018150F6CF49
:100A9000CF93DF9310922B0210922A0245D34DDFA1
:100AA000C0910D01D0910E01198218820FDEF894C9
:100AB000B6DF2881398181E0232B09F080E0809323
:100AC0002A027894789480912A02811107C051DE1D
:100AD000F89490E080E0DF91CF91089528813981EA
:100AE00081E0232B09F480E080932B0290912B026C
:100AF00081E0911180E080932A02B0DF1DDFE3CF17
:100B00005058BB27AA270ED00DC2FED130F003D219
:100B100020F031F49F3F11F41EF4F3C10EF4E09580
:100B2000E7FBC0C1E92F0FD280F3BA176207730742
:100B30008407950718F071F49EF53EC20EF4E09517
:100B40000B2EBA2FA02D0B01B90190010C01CA0187
:100B5000A0011124FF27591B99F0593F50F4503E32
:100B600068F11A16F040A22F232F342F4427585F24
:100B7000F3CF469537952795A795F0405395C9F73C
:100B80007EF41F16BA0B620B730B840BBAF09150F4
:100B9000A1F0FF0FBB1F661F771F881FC2F70EC093
:100BA000BA0F621F731F841F48F487957795679566
:100BB000B795F7959E3F08F0B3CF9395880F08F04F
:100BC0009927EE0F979587950895DFD180F09F378D
:100BD00040F491110EF4F1C160E070E080E89FE311
:100BE000089526F01B16611D711D811D61C17BC119
:100BF00035D108F481E008950CD094C18CD140F037
:100C000083D130F021F45F3F19F04CC15111D5C1AF
:100C100078C199D198F39923C9F35523B1F3951B62
:100C2000550BBB27AA2762177307840738F09F5F0D
:100C30005F4F220F331F441FAA1FA9F333D00E2E7C
:100C40003AF0E0E830D091505040E695001CCAF7E9
:100C500029D0FE2F27D0660F771F881FBB1F2617AE
:100C600037074807AB07B0E809F0BB0B802DBF0181
:100C7000FF2793585F4F2AF09E3F510568F012C13D
:100C80009CC15F3FECF3983EDCF3869577956795C2
:100C9000B795F7959F5FC9F7880F911D9695879532
:100CA00097F90895E1E0660F771F881FBB1F621751
:100CB00073078407BA0720F0621B730B840BBA0B0F
:100CC000EE1F88F7E095089546D188F09F5790F081
:100CD000B92F9927B751A0F0D1F0660F771F881F61
:100CE000991F1AF0BA95C9F712C0B13081F064D1DA
:100CF000B1E0089561C1672F782F8827B85F39F078
:100D0000B93FCCF3869577956795B395D9F73EF4BF
:100D100090958095709561957F4F8F4F9F4F089567
:100D2000E89409C097FB3EF4909580957095619585
:100D30007F4F8F4F9F4F9923A9F0F92F96E9BB273B
:100D40009395F695879577956795B795F111F8CFB7
:100D5000FAF4BB0F11F460FF1BC06F5F7F4F8F4F22
:100D60009F4F16C0882311F096E911C0772321F018
:100D70009EE8872F762F05C0662371F096E8862FB0
:100D800070E060E02AF09A95660F771F881FDAF707
:100D9000880F9695879597F90895F7D080F09F373B
:100DA00040F491110EF009C160E070E080E89FEB23
:100DB000089526F41B16611D711D811D79C093C015
:100DC000A3D018F011F0A7D038F49BC0F6C0E92FDB
:100DD000BAD0B0F35523C9F3E7FB62177307840752
:100DE0009507A8F199F3E92FFF2788232AF0319777
:100DF000660F771F881FDAF7952F5527442332F0A7
:100E000091505040220F331F441FD2F7BB27E91BDC
:100E1000F50B621B730B840BB109C1F222F4620F54
:100E2000731F841FB11D31972AF0660F771F881F2B
:100E3000BB1FEFCF915050405AF041F0882332F061
:100E4000660F771F881F91505040C1F793954BC094
:100E50008695779567959F5FD9F7F8CF990F00082A
:100E6000550FAA0BE0E8FEEF16161706E807F9077C
:100E7000C0F012161306E407F50798F0621B730B17
:100E8000840B950B39F40A2661F0232B242B252B98
:100E900021F408950A2609F4A140A6958FEF811D3B
:100EA000811D089597F99F6780E870E060E00895DC
:100EB000882371F4772321F09850872B762F07C071
:100EC000662311F499270DC09051862B70E060E0E5
:100ED0002AF09A95660F771F881FDAF7880F969584
:100EE000879597F908959F3F31F0915020F48795A9
:100EF00077956795B795880F911D9695879597F982
:100F000008959FEF80EC089500240A9416161706A2
:100F100018060906089500240A94121613061406EA
:100F200005060895092E0394000C11F4882352F04D
:100F3000BB0F40F4BF2B11F460FF04C06F5F7F4F05
:100F40008F4F9F4F089557FD9058440F551F59F0EC
:100F50005F3F71F04795880F97FB991F61F09F3FA6
:100F600079F087950895121613061406551FF2CFCF
:100F70004695F1DF08C0161617061806991FF1CF1F
:100F800086957105610508940895E5DFA0F0BEE738
:100F9000B91788F4BB279F3860F41616B11D672F68
:100FA000782F8827985FF7CF869577956795B11D3D
:100FB00093959639C8F30895E894BB276627772759
:100FC000CB0197F908954ADF08F48FEF08950BD00D
:100FD000A9CF9ADF28F09FDF18F0952309F062CFA0
:100FE00090CF1124EACFAFDFA0F3959FD1F3950FF7
:100FF00050E0551F629FF001729FBB27F00DB11D9D
:10100000639FAA27F00DB11DAA1F649F6627B00D2C
:10101000A11D661F829F2227B00DA11D621F739F15
:10102000B00DA11D621F839FA00D611D221F749F23
:101030003327A00D611D231F849F600D211D822F6A
:10104000762F6A2F11249F5750408AF0E1F08823B1
:101050004AF0EE0FFF1FBB1F661F771F881F9150BE
:101060005040A9F79E3F510570F01CCFA6CF5F3FBF
:10107000ECF3983EDCF3869577956795B795F795F1
:10108000E7959F5FC1F7FE2B880F911D9695879579
:1010900097F908951F920F920FB60F9211242F9374
:1010A0003F938F939F93AF93BF9380914101909112
:1010B0004201A0914301B09144013091400123E0ED
:1010C000230F2D3758F50196A11DB11D2093400126
:1010D0008093410190934201A0934301B093440156
:1010E0008091450190914601A0914701B09148013E
:1010F0000196A11DB11D8093450190934601A093D7
:101100004701B0934801BF91AF919F918F913F915B
:101110002F910F900FBE0F901F90189526E8230F68
:101120000296A11DB11DD2CF789484B5826084BD92
:1011300084B5816084BD85B5826085BD85B58160DB
:1011400085BDEEE6F0E0808181608083E1E8F0E03B
:101150001082808182608083808181608083E0E86A
:10116000F0E0808181608083E1EBF0E08081846049
:101170008083E0EBF0E0808181608083EAE7F0E04B
:1011800080818460808380818260808380818160AF
:1011900080838081806880831092C10008958E30A2
:1011A00008F08E5020910C0190E4299F90011124A9
:1011B0008770822B80937C0080917A00806480937A
:1011C0007A0080917A0086FDFCCF80917800909122
:1011D00079000895CF93DF9390E0FC01E859FF4F29
:1011E000249184589F4FFC0184918823C9F090E09A
:1011F000880F991FFC01E656FF4FA591B491FC01A1
:10120000E057FF4FC591D49161110DC09FB7F8947D
:101210008C91209582238C938881282328839FBFDB
:10122000DF91CF910895623051F49FB7F8943C91CB
:10123000822F809583238C93E8812E2BEFCF8FB75D
:10124000F894EC912E2B2C938FBFEACFFC01918D5B
:10125000228D892F90E0805C9F4F821B91098F73B4
:1012600099270895FC01918D828D981731F0828D18
:10127000E80FF11D858D90E008958FEF9FEF0895A1
:10128000FC01918D828D981761F0A28DAE0FBF2F5A
:10129000B11D5D968C91928D9F5F9F73928F90E0B0
:1012A00008958FEF9FEF0895FC01538D448D252FF6
:1012B00030E0842F90E0821B930B541710F0CF96F0
:1012C000089501970895FC01A48DA80FB92FB11DB1
:1012D000A35ABF4F2C91848D90E001968F7399276C
:1012E000848FA689B7892C93A089B1898C9183704A
:1012F00080648C93938D848D981306C00288F38943
:10130000E02D80818F7D80830895CF93DF93EC0162
:10131000888D8823B1F0AA89BB89E889F9898C91E5
:1013200085FD03C0808186FD0CC00FB607FCF7CF9A
:101330008C9185FFF2CF808185FFEDCFCE01C3DF99
:10134000EACFDF91CF910895EF92FF920F931F9311
:10135000CF93DF93EC0181E0888F9B8D8C8D981368
:101360001AC0E889F989808185FF15C09FB7F89474
:10137000EE89FF896083E889F989808183708064C0
:1013800080839FBF81E090E0DF91CF911F910F910B
:10139000FF90EF900895F62E0B8D10E00F5F1F4F1A
:1013A0000F731127E02E8C8D8E110BC00FB607FC2A
:1013B000FACFE889F989808185FFF5CFCE0183DFF7
:1013C000F2CFEB8DEC0FFD2FF11DE35AFF4FF082B2
:1013D0009FB7F8940B8FEA89FB8980818062D0CF18
:1013E000CF92DF92EF92FF921F93CF93DF93EC01A6
:1013F0006A017B01122FE889F98982E08083C11498
:1014000081EED806E104F10499F060E079E08DE323
:1014100090E0A7019601F2D221503109410951090A
:101420005695479537952795211580E1380790F017
:10143000E889F989108260E874E88EE190E0A701FC
:101440009601DCD221503109410951095695479541
:1014500037952795EC85FD853083EE85FF852083C4
:10146000188EEC89FD891083EA89FB89808180616F
:101470008083EA89FB89808188608083EA89FB898F
:10148000808180688083EA89FB8980818F7D808369
:10149000DF91CF911F91FF90EF90DF90CF90089553
:1014A0001F920F920FB60F9211242F938F939F9339
:1014B000EF93FF93E0915901F0915A018081E091FF
:1014C0005F01F091600182FD1BC0908180916201FB
:1014D0008F5F8F7320916301821741F0E091620169
:1014E000F0E0E75BFE4F958F80936201FF91EF91F3
:1014F0009F918F912F910F900FBE0F901F90189575
:101500008081F4CF1F920F920FB60F9211242F9368
:101510003F934F935F936F937F938F939F93AF937B
:10152000BF93EF93FF9389E491E0CDDEFF91EF91BC
:10153000BF91AF919F918F917F916F915F914F91EB
:101540003F912F910F900FBE0F901F901895E9E4D7
:10155000F1E01382128288EE93E0A0E0B0E0848391
:101560009583A683B78383E191E09183808385ECA3
:1015700090E09587848784EC90E09787868780EC5D
:1015800090E0918B808B81EC90E0938B828B82EC4E
:1015900090E0958B848B86EC90E0978B868B118EF8
:1015A000128E138E148E0895AF92BF92CF92DF9257
:1015B000EF92FF920F931F93CF93DF936C017B0108
:1015C0008B01040F151FEB015E01AE18BF08C01799
:1015D000D10759F06991D601ED91FC910190F0810C
:1015E000E02DC6010995892B79F7C501DF91CF91CF
:1015F0001F910F91FF90EF90DF90CF90BF90AF9031
:101600000895FB0101900020E9F73197AF01461BD7
:10161000570BDC01ED91FC910280F381E02D0994E0
:101620006115710509F0EDCF90E080E00895DC01CF
:10163000ED91FC910190F081E02D099461E271E05F
:10164000E0CF8F929F92AF92BF92EF92FF920F9353
:101650001F93CF93DF93CDB7DEB7A1970FB6F89462
:10166000DEBF0FBECDBF7C01FA01CB0119A2223033
:1016700008F42AE08E010F5D1F4F822E912CB12CB1
:10168000A12CBF01A5019401B9D1F901CA016A30A9
:1016900004F5605DD8016E938D01232B242B252B3F
:1016A00081F790E080E0109719F0BD01C701A9DF34
:1016B000A1960FB6F894DEBF0FBECDBFDF91CF91DC
:1016C0001F910F91FF90EF90BF90AF909F908F90E0
:1016D0000895695CDFCFCF92DF92EF92FF920F9374
:1016E0001F93CF93DF932115310581F4DC01ED9138
:1016F000FC910190F081E02D642FDF91CF911F913B
:101700000F91FF90EF90DF90CF9009942A30310530
:10171000F1F42AE077FF1BC06A017B01EC016DE266
:1017200086DF8C0144275527BA014C195D096E09E3
:101730007F092AE0CE0185DF800F911FDF91CF91D5
:101740001F910F91FF90EF90DF90CF900895DF9160
:10175000CF911F910F91FF90EF90DF90CF9071CFBD
:101760009A01AB01770F660B770BB5CF0F931F93E1
:10177000CF93DF93EC01F4DF8C01CE015FDF800FAC
:10178000911FDF91CF911F910F9108950F931F9398
:10179000CF93DF93EC019FDF8C01CE014FDF800FF1
:1017A000911FDF91CF911F910F9108952115310560
:1017B00041F4DC01ED91FC910190F081E02D642F6A
:1017C00009943FCF9A01462F50E070E060E0EECFE1
:1017D0000F931F93CF93DF93EC01F4DF8C01CE01C5
:1017E0002DDF800F911FDF91CF911F910F910895F1
:1017F0009A01AB0170E060E0D9CF0F931F93CF93B4
:10180000DF93EC01F5DF8C01CE0118DF800F911F13
:10181000DF91CF911F910F9108950F931F93CF9355
:10182000DF93EC01C3DF8C01CE0108DF800F911F35
:10183000DF91CF911F910F9108952F923F924F9278
:101840005F926F927F928F929F92AF92BF92CF9250
:10185000DF92EF92FF921F93CF93DF93EC016A0127
:101860007B01722EAB019601CB01B601FED064E282
:1018700071E0811123C046015701E894B7F82FEFBA
:101880003FEF4FE75FE7C501B401EFD081110BC017
:101890002FEF3FEF4FE75FE7C501B401A9D968E239
:1018A00071E018165CF02FEF3FEF4FE75FE4C701E0
:1018B000B60189DB1816ACF46CE271E0CE01DF9161
:1018C000CF911F91FF90EF90DF90CF90BF90AF909E
:1018D0009F908F907F906F905F904F903F902F9050
:1018E00090CE2FEF3FEF4FE75FECC701B60180D9F5
:1018F00087FDE2CF20E030E0A901C701B60178D929
:10190000312C212C87FF08C06DE2CE0190DE1C0136
:10191000F7FAF094F7F8F09410E060E070E080E0FF
:101920009FE3711639F020E030E040E251E464D9E1
:101930001F5FF7CFA7019601E4D82B013C01C4D962
:101940004B015C012AE0BC01A401CE017ADE7C01DE
:10195000E20CF31C112371F1C501B401E1D99B0123
:10196000AC01C301B201CCD84B015C016EE2CE01E7
:101970005EDEE80EF91E1150E8F020E030E040E2B3
:1019800051E4C501B40123DB2B013C019DD94B017E
:101990004AE050E0CE012CDFE80EF91EB40190E0E1
:1019A00080E0BED99B01AC01C301B201A9D84B01B3
:1019B0005C01E1CFC701DF91CF911F91FF90EF90C4
:1019C000DF90CF90BF90AF909F908F907F906F905F
:1019D0005F904F903F902F9008952FCF0F931F93BC
:1019E000CF93DF93EC0129DF8C01CE0127DE800F3E
:1019F000911FDF91CF911F910F910895A1E21A2EAF
:101A0000AA1BBB1BFD010DC0AA1FBB1FEE1FFF1FA2
:101A1000A217B307E407F50720F0A21BB30BE40BF2
:101A2000F50B661F771F881F991F1A9469F7609539
:101A30007095809590959B01AC01BD01CF010895F3
:101A4000EE0FFF1F0590F491E02D0994A29FB001C5
:101A5000B39FC001A39F700D811D1124911DB29FE2
:101A6000700D811D1124911D0895F8D9880B990BD3
:061A70000895F894FFCF79
:101A76007F8000C07F4400C07F447F7F0139010022
:101A8600000000A409D40A54098509260940093230
:101A9600090D0A006E616E00696E66006F7666005B
:00000001FF
